:100000000C9465010C948D010C948D010C948D0160
:100010000C948D010C948D010C948D010C948D0128
:100020000C948D010C948D010C94EC040C94B80389
:100030000C948D010C948D010C948D010C948D0108
:100040000C948D010C948D010C948D010C948D01F8
:100050000C948D010C948D010C948D010C94600511
:100060000C948D010C948D010C948D010C948D01D8
:100070000C948D010C948D010C948D010C948D01C8
:100080000C948D010C948D010C948D010C948D01B8
:100090000C948D010C948D010C948D010C948D01A8
:1000A0000C948D010C948D010C948D0163066606F1
:1000B000550659065F068706870687066A066E0696
:1000C000720678067C068706820600C18081C1120E
:1000D00001000202000040412341800001010200B2
:1000E0000112010002000000404123418000010193
:1000F00002000141726475696E6F204C4C430055DB
:10010000534220494F20426F617264000403090486
:100110000000000200090F0000030401000C0000B1
:1001200000000000000000000000000000000408C3
:1001300002011040804010204080408008020401ED
:10014000804020100201108010204040040404046C
:10015000040304050202020204030202020206066C
:100160000606060604040202020400000000250040
:1001700028002B002E003100000000002400270082
:100180002A002D003000080B0002020201000904C1
:1001900000000102020000052400100105240101F5
:1001A000010424020605240600010705810310004E
:1001B0004009040100020A00000007050202400095
:1001C000000705830240000000000000000000005E
:1001D0002A2B2800000000000000000000000000A2
:1001E00000000000000000002C9EB4A0A1A2A434D6
:1001F000A6A7A5AE362D3738271E1F20212223247F
:100200002526B333B62EB7B89F8485868788898A1A
:100210008B8C8D8E8F909192939495969798999AB6
:100220009B9C9D2F3130A3AD350405060708090AB4
:100230000B0C0D0E0F101112131415161718191A96
:100240001B1C1DAFB1B0B500090402000103000082
:100250000009210101000122650007058403400017
:100260000105010902A1010901A100850105091982
:10027000012903150025019503750181029501757A
:1002800005810305010930093109381581257F757C
:100290000895038106C0C005010906A10185020574
:1002A0000719E029E71500250175019508810295D8
:1002B0000175088103950675081500256505071960
:1002C0000029658100C0B407070911241FBECFEFC4
:1002D000DAE0DEBFCDBF11E0A0E0B1E0EAE8F2E194
:1002E00002C005900D92A832B107D9F721E0A8E22B
:1002F000B1E001C01D92A839B207E1F712E0CAECE3
:10030000D2E004C02297FE010E943F09C63CD107FB
:10031000C9F70E94AB010C9443090C9400008DE0D6
:100320008093280161E00C94880661E080912801A7
:100330000E94C10664EF71E080E090E00E94CD056C
:1003400060E0809128010E94C10664EF71E080E0C6
:1003500090E00C94CD050E94F50589E291E00E94A1
:1003600042050E948F01C0E0D0E00E9495012097D5
:10037000E1F30E940000F9CF40912D0150912E0130
:1003800020912B0130912C0142175307B4F4909126
:10039000E8009570E1F39091E80092FD19C0809318
:1003A000F10080912D0190912E0101968F73992774
:1003B000892B19F48EEF8093E80080912D019091A4
:1003C0002E01019690932E0180932D0181E00895D6
:1003D00080E00895CF92DF92FF920F931F93CF9307
:1003E000DF931F92CDB7DEB7082F162F862F880F09
:1003F0008E5F99830E94BC0183E00E94BC01F02EB5
:10040000C02E9981D92E8C2D8F19811778F4F60181
:1004100084910E94BC01082F80E00E94BC018023CF
:10042000FFEFCF1ADF0A8111EECF01C081E00F90FC
:10043000DF91CF911F910F91FF90DF90CF900895A2
:10044000615030F02091F100FC0120830196F8CF3B
:10045000289884E68093300108952FB7FC0120830B
:10046000F89467706093E9000895CF93DF931F922B
:10047000CDB7DEB7682FCE0101960E942D02809184
:10048000F20099819FBF0F90DF91CF910895FF9265
:100490000F931F93CF93DF9300D0CDB7DEB7F62E27
:1004A0008A0190912F01992311F057FF03C08FEF1C
:1004B0009FEF2BC0682FCE0101967A830E942D02F8
:1004C0008091F20090E0A8017A81801791070CF4E6
:1004D000AC01EF2DF72FF40E84E6FE1639F02898C4
:1004E000809330019091F1009193F7CF4115510520
:1004F00021F08091F200882321F089818FBFCA0109
:1005000004C08BE68093E800F8CF0F900F90DF9146
:10051000CF911F910F91FF900895CF93DF931F927A
:10052000CDB7DEB741E050E0BE016F5F7F4F0E9464
:100530004702019719F4898190E002C08FEF9FEF85
:100540000F90DF91CF910895CF93DF931F92CDB796
:10055000DEB7682FCE0101960E942D029091E8002F
:10056000892F807295FF04C09091F20080E4891B6E
:1005700099819FBF0F90DF91CF9108956F927F92E5
:100580008F929F92AF92BF92CF92DF92EF92FF92A3
:100590000F931F93CF93DF931F92CDB7DEB7782EC3
:1005A0007B01C42EB52E80912F01882369F0042F82
:1005B000152F8AEFD82E872D8072982E9AE3A92EB8
:1005C000872D8074882E11C08FEF9FEF57C0872D25
:1005D0000E94A402682E81110CC0DA94A9F361E094
:1005E00070E080E090E00E94CD050115110579F7DB
:1005F0003BC0282F30E0021713070CF4602E672D44
:10060000CE0101960E942D028091E80085FF29C04D
:10061000262D30E0021B130B992039F06A948FEFDE
:100620006816B1F01092F100F9CFF701862D77FE30
:1006300007C0815058F094919093F1003196F9CF12
:10064000815020F091919093F100FACFE20EF31EC9
:100650008091E80085FF0FC00115110511F481108C
:100660000AC089818FBFC1CF5D9884E68093310134
:100670008C2D9B2D03C0A092E800F3CF0F90DF914B
:10068000CF911F910F91FF90EF90DF90CF90BF908F
:10069000AF909F908F907F906F9008951092E90097
:1006A00010922E0110922D0190932C0180932B011A
:1006B0000895CF92DF92FF920F931F93CF93DF9312
:1006C00000D0CDB7DEB7F82E8A016B0101151105F8
:1006D000B1F0F601F7FE02C0849101C08081498328
:1006E0005A830E94BC0101501109FFEFCF1ADF0AA3
:1006F00049815A818111EACF8FEF9FEF01C0CA0172
:100700000F900F90DF91CF911F910F91FF90DF908D
:10071000CF9008951F93CF93DF931F92CDB7DEB78D
:10072000162F2091E80022FFFCCF612F79830E94D1
:1007300020028BEF8093E800812F7981972F0F9013
:10074000DF91CF911F910895CF93DF931F92CDB783
:10075000DEB71982CE0101960E945407CE010196A0
:100760000E94EF07898190E00F90DF91CF9108956B
:100770001F920F920FB60F921124EF92FF920F93D8
:100780001F932F933F934F935F936F937F938F9319
:100790009F93AF93BF93EF93FF93CF93DF93CDB727
:1007A000DEB76297DEBFCDBF1092E9008091E8000E
:1007B00083FFEBC068E0CE010A960E94200282EF20
:1007C0008093E8009A8597FF05C08091E80080FF3C
:1007D000FCCF03C08EEF8093E800892F807609F06C
:1007E000B9C08B85811105C01092F1001092F10003
:1007F000C5C0282F2D7F213009F4C0C0853049F4B1
:100800008091E80080FFFCCF8C8580688093E300B6
:10081000B5C0863009F076C02D85E888F988223089
:1008200071F580E090E02A8B0E944E030E94A403A1
:1008300099E08E010F5F1F4FF801392F11923A9501
:10084000E9F799832A892A8391E09E8390E8988723
:100850009AEF998720912D0130912E01275F3F4F0C
:100860003C832B838D83C7010E944E0349E050E0F7
:10087000B80180E00E9459030E94A4037FC0C70111
:100880002A8B0E944E032A89223241F482E290E0B0
:100890000E94FA07892B09F071C074C0213069F4F5
:1008A00088899989089711F420932A0180912A0157
:1008B000811118C061EE70E01AC0233009F062C0E7
:1008C0008C85882391F0823021F46CE08FEF90E0EA
:1008D00006C0813009F056C06BE083EF90E00E94C3
:1008E000EA014AC06FEC70E002C06CE071E0611593
:1008F000710509F447C0FB01449150E080E80E9473
:1009000059033CC0873009F43DC0883021F481E0B0
:100910008093F10033C0893089F5937099F5EBEC41
:10092000F0E081E021E096E38093E9002093EB0082
:1009300034913093EC009093ED008F5F31968530C9
:1009400099F78EE78093EA001092EA008C858093F5
:100950002F0114C0888999890E944E038E858111C8
:1009600005C0CE010A960E945F0706C0823051F48E
:10097000CE010A960E942208882321F08EEF8093F0
:10098000E80003C081E28093EB0062960FB6F89412
:10099000DEBF0FBECDBFDF91CF91FF91EF91BF9131
:1009A000AF919F918F917F916F915F914F913F9107
:1009B0002F911F910F91FF90EF900F900FBE0F900E
:1009C0001F9018958093E9008091F200882319F018
:1009D0008AE38093E80008951F920F920FB60F925A
:1009E00011242F933F934F935F936F937F938F9334
:1009F0009F93AF93BF93EF93FF938091E100109289
:100A0000E10083FF0FC01092E90091E09093EB00AA
:100A10001092EC0092E39093ED0010922F0198E079
:100A20009093F00082FF1DC083E00E94E204809159
:100A30003101882339F08091310181508093310157
:100A4000882369F080913001882359F0809130012A
:100A5000815080933001811104C0289A02C05D9AB0
:100A6000F1CFFF91EF91BF91AF919F918F917F91C6
:100A70006F915F914F913F912F910F900FBE0F900B
:100A80001F90189510922F0181E08093D70080EA83
:100A90008093D80082E189BD09B400FEFDCF61E0FA
:100AA00070E080E090E00E94CD0580E98093D8005E
:100AB0008CE08093E2001092E000559A209A08950D
:100AC0001F920F920FB60F9211242F933F938F9383
:100AD0009F93AF93BF938091330190913401A09184
:100AE0003501B09136013091320123E0230F2D37CB
:100AF00020F40196A11DB11D05C026E8230F029622
:100B0000A11DB11D209332018093330190933401D4
:100B1000A0933501B093360180913701909138014F
:100B2000A0913901B0913A010196A11DB11D8093A8
:100B3000370190933801A0933901B0933A01BF91E6
:100B4000AF919F918F913F912F910F900FBE0F907A
:100B50001F9018953FB7F894809137019091380114
:100B6000A0913901B0913A0126B5A89B05C02F3F4D
:100B700019F00196A11DB11D3FBF6627782F892F5F
:100B80009A2F620F711D811D911D42E0660F771F24
:100B9000881F991F4A95D1F70895CF92DF92EF925F
:100BA000FF92CF93DF936B017C010E94AA05EB01BA
:100BB000C114D104E104F10489F00E943C090E94AF
:100BC000AA056C1B7D0B683E734090F381E0C81A48
:100BD000D108E108F108C851DC4FEACFDF91CF918D
:100BE000FF90EF90DF90CF900895789484B5826065
:100BF00084BD84B5816084BD85B5826085BD85B5C1
:100C0000816085BDEEE6F0E0808181608083E1E86F
:100C1000F0E01082808182608083808181608083A7
:100C2000E0E8F0E0808181608083E1E9F0E08081AC
:100C300082608083808181608083E0E9F0E0808150
:100C400081608083E1ECF0E080818460808380813A
:100C500082608083808181608083E3ECF0E080812A
:100C600081608083E0ECF0E0808182608083E2EC50
:100C7000F0E0808181608083EAE7F0E08081846039
:100C80008083808182608083808181608083808195
:100C900080688083089590E0FC013197EF30F10582
:100CA000B0F5EA5AFF4F0C943D09809180008F7790
:100CB00003C0809180008F7D809380000895809193
:100CC0008000877FF9CF84B58F7702C084B58F7D90
:100CD00084BD0895809190008F7707C08091900027
:100CE0008F7D03C080919000877F8093900008954E
:100CF0008091C0008F7703C08091C0008F7D80936A
:100D0000C00008958091C200877F8093C20008953B
:100D1000CF93DF9390E0FC01E25DFE4F2491FC0154
:100D2000E45BFE4F8491882349F190E0880F991F7E
:100D3000FC01E858FE4FA591B49186599E4FFC01E5
:100D4000C591D4919FB7611108C0F8948C912095FA
:100D500082238C93888182230AC0623051F4F894F4
:100D60008C91322F309583238C938881822B8883BA
:100D700004C0F8948C91822B8C939FBFDF91CF910C
:100D800008950F931F93CF93DF931F92CDB7DEB7D4
:100D9000282F30E0F901E05FFE4F8491F901E25D18
:100DA000FE4F1491F901E45BFE4F04910023C9F05A
:100DB000882321F069830E944B066981E02FF0E0CF
:100DC000EE0FFF1FE659FE4FA591B4919FB7F8941F
:100DD0008C91611103C01095812301C0812B8C93EC
:100DE0009FBF0F90DF91CF911F910F910895CF93E7
:100DF000DF931F92CDB7DEB76983DC01ED91FC91E3
:100E00000280F381E02D41E050E0BE016F5F7F4F33
:100E100009950F90DF91CF910895CF93DF93EC0167
:100E20008C859D8597FF05C082E00E948D029D877D
:100E30008C878C859D85DF91CF91089583E00C94FC
:100E4000E204FC018485958597FD06C082E00E943E
:100E5000350290E00196089582E00E94350290E00C
:100E60000895FC018485958597FD05C02FEF3FEF20
:100E700035872487089582E00C948D02CF93DF9309
:100E8000EC0180910701882331F083E00E94BE02CB
:100E90001816190634F081E090E09B838A8380E085
:100EA00090E0DF91CF910895FC0120812E5F208397
:100EB00042E450E066E871E080E80C945903FC01DC
:100EC00081819081913A59F4813209F03CC047E028
:100ED00050E060E071E080E00E94590343C091322D
:100EE00091F5803239F467E070E080E091E00E9493
:100EF0008A0306C0823209F035C0828180930701DF
:100F00008091000190910101A0910201B091030133
:100F1000803B9440A105B105C1F48091070180FD9B
:100F200014C087E797E790930108809300082BE0AF
:100F300088E190E00FB6F894A895809360000FBE0A
:100F4000209360000FC080E0089588E10FB6F89408
:100F500080936000109260000FBEA8951092010867
:100F60001092000881E0089510923E0110923D0118
:100F700088EE93E0A0E0B0E080933F0190934001C1
:100F8000A0934101B09342018EE091E090933C0127
:100F900080933B018FEF9FEF90934801809347012F
:100FA0000895FF920F931F93CF93DF93EC01F62EDA
:100FB000E881F9810480F581E02D09958C01E881B3
:100FC000F9810680F781E02D6F2DCE010995C801CA
:100FD0009927DF91CF911F910F91FF900895FC0108
:100FE00020812F5F208349E150E068E472E080E8CF
:100FF0000C94590345E650E061E672E080E80C94F9
:101000005903EF92FF920F931F93CF93DF931F9299
:10101000CDB7DEB789838B017A0141E050E0BE0194
:101020006F5F7F4F84E00E94BE02A701B80184E495
:101030000E94BE020F90DF91CF911F910F91FF9000
:10104000EF900895FC0191818081813A31F481E033
:10105000913091F0933089F411C0813271F49B305A
:1010600021F482818093090105C09A3031F4828194
:101070008093080181E00895089580E0089548E094
:1010800050E082E00C940108CF93DF93DC016838D4
:1010900018F0E8E7E60F25C0E62FF0E067FF11C083
:1010A000E058F10981E090E001C0880FEA95EAF785
:1010B00014969C911497982B14969C931497E0E0A7
:1010C00010C0E853FE4FE491EE2309F440C0E7FF5F
:1010D00008C014968C911497826014968C93149780
:1010E000EF7716968C9116978E1741F117968C9183
:1010F00017978E1719F118968C9118978E17F1F093
:1011000019968C9119978E17C9F01A968C911A9787
:101110008E17A1F01B968C911B978E1779F080E0AB
:1011200090E0ED01C80FD91F2E81211102C0EE837E
:1011300005C0019686309105A1F709C0BD016C5F1D
:101140007F4FCD010E943F0881E090E008C081E020
:1011500090E013969C938E93129780E090E0DF913D
:10116000CF910895683818F0E8E7E60F25C0E62F1C
:10117000F0E067FF12C0E058F10921E030E001C063
:10118000220FEA95EAF72095DC0114963C9114971A
:10119000322314963C93E0E00FC0E853FE4FE491F5
:1011A000EE2329F1E7FF08C0DC0114962C91149777
:1011B0002D7F14962C93EF7720E030E0EE2351F052
:1011C000DC01A20FB31F16964C9116974E1302C066
:1011D00016961C922F5F3F4F2630310579F7BC01E0
:1011E0006C5F7F4F0E943F0881E090E0089580E0AF
:1011F00090E00895FC0116821782108611861286EF
:1012000013861482BC016C5F7F4F0C943F081092D0
:10121000970110928E0110928D018EE191E09093D2
:101220008C0180938B010895CF92DF92EF92FF9211
:101230000F931F93CF93DF936C017A01EB01E60EBE
:10124000F71E00E010E0CE15DF0561F06991D601D0
:10125000ED91FC910190F081E02DC6010995080FF8
:10126000191FF1CFC801DF91CF911F910F91FF900E
:10127000EF90DF90CF9008950895EE0FFF1F059037
:0A128000F491E02D0994F894FFCFDB
:10128A0000E1000000000000010100000000F70674
:10129A003E07210731070D071E0700000000D1078E
:0812AA0014094408B208FA0817
:00000001FF
